:100000000C945D000C9485000C9485000C948F0377
:100010000C948F030C948F030C9485000C94850032
:100020000C9485000C9485000C9485000C9485003C
:100030000C9485000C9485000C9485000C9485002C
:100040000C9445030C9485000C9413030C94ED025E
:100050000C9485000C9485000C9485000C9485000C
:100060000C9485000C94850000000008000201003B
:100070000003040700000000000000000000000072
:10008000250028002B0000000000240027002A0083
:10009000040404040404040402020202020203032E
:1000A0000303030301020408102040800102040836
:1000B0001020010204081020040511241FBECFEFF8
:1000C000D8E0DEBFCDBF21E0A6E2B1E001C01D92C5
:1000D000AE3CB207E1F711E0A0E0B1E0E6EAFAE0F9
:1000E00002C005900D92A632B107D9F710E0CDE518
:1000F000D0E004C02197FE010E944B05CC35D1070A
:10010000C9F70E9499030C9451050C94000090E0EB
:10011000FC01EC55FF4F249180579F4FFC018491C7
:10012000882399F090E0880F991FFC01EA57FF4F50
:10013000A591B491FC01E458FF4F859194918FB73C
:10014000F894EC91E22BEC938FBF0895AF92BF929D
:10015000CF92DF92EF92FF920F931F93CF93DF9393
:100160006C017B018B01040F151FEB015E01AE18C2
:10017000BF08C017D10759F06991D601ED91FC91E4
:100180000190F081E02DC6010995892B79F7C50111
:10019000DF91CF911F910F91FF90EF90DF90CF9063
:1001A000BF90AF900895FC01538D448D252F30E012
:1001B000842F90E0821B930B541710F0CF96089574
:1001C00001970895FC01918D828D981761F0A28DA1
:1001D000AE0FBF2FB11D5D968C91928D9F5F9F7367
:1001E000928F90E008958FEF9FEF0895FC01918D1D
:1001F000828D981731F0828DE80FF11D858D90E08A
:1002000008958FEF9FEF08952FB7F89480912D01F7
:1002100090912E01A0912F01B09130012FBF8093BA
:10022000390190933A01A0933B01B0933C0181E3E3
:1002300091E00E94F60097FF26C02FB7F8948091B6
:100240002D0190912E01A0912F01B09130012FBF6F
:100250004091390150913A0160913B0170913C010C
:10026000841B950BA60BB70B4091350150913601BD
:10027000609137017091380184179507A607B70779
:10028000B0F28FEF9FEF0895FC01918D228D892FA1
:1002900090E0805C9F4F821B91098F73992708958E
:1002A00081E391E00E94440121E0892B09F420E0E0
:1002B000822F089580E090E0892B29F00E94500160
:1002C00081110C9400000895FC01A48DA80FB92F92
:1002D000B11DA35ABF4F2C91848D90E001968F736E
:1002E0009927848FA689B7892C93A089B1898C918D
:1002F000837080648C93938D848D981306C00288DC
:10030000F389E02D80818F7D80830895EF92FF92A5
:100310000F931F93CF93DF93EC0181E0888F9B8D28
:100320008C8D98131AC0E889F989808185FF15C0E2
:100330009FB7F894EE89FF896083E889F989808105
:100340008370806480839FBF81E090E0DF91CF91D4
:100350001F910F91FF90EF900895F62E0B8D10E0F6
:100360000F5F1F4F0F731127E02E8C8D8E110CC065
:100370000FB607FCFACFE889F989808185FFF5CFB0
:10038000CE010E946401F1CFEB8DEC0FFD2FF11D2A
:10039000E35AFF4FF0829FB7F8940B8FEA89FB89ED
:1003A00080818062CFCFCF93DF93EC01888D88234B
:1003B000B9F0AA89BB89E889F9898C9185FD03C0C8
:1003C000808186FD0DC00FB607FCF7CF8C9185FFAD
:1003D000F2CF808185FFEDCFCE010E946401E9CF8D
:1003E000DF91CF91089590E0FC01E859FF4F2491EF
:1003F000FC01EC55FF4F3491FC01E057FF4FE491B5
:10040000EE23C9F0222339F0233001F1A8F4213082
:1004100019F1223029F1F0E0EE0FFF1FE458FF4FF1
:10042000A591B4918FB7F894EC91611126C03095E5
:100430003E233C938FBF08952730A9F02830C9F0A0
:10044000243049F7809180008F7D03C08091800027
:100450008F7780938000DFCF84B58F7784BDDBCF2B
:1004600084B58F7DFBCF8091B0008F778093B000F3
:10047000D2CF8091B0008F7DF9CF3E2BDACF1F9382
:10048000CF93DF93182FEB010E948700209739F458
:1004900060E0812FDF91CF911F910C94F301E12F48
:1004A000F0E0E859FF4FE491E33011F148F4E13016
:1004B000B9F0E23069F784B5806284BDC8BD14C06C
:1004C000E73001F1E83031F1E43011F7809180003C
:1004D000806280938000D0938B00C0938A0004C018
:1004E00084B5806884BDC7BDDF91CF911F91089509
:1004F00080918000806880938000D0938900C093B1
:100500008800F2CF8091B00080688093B000C093E3
:10051000B300EACF8091B00080628093B000C093B6
:10052000B400E2CF3FB7F8948091290190912A015D
:10053000A0912B01B0912C0126B5A89B05C02F3F9F
:1005400019F00196A11DB11D3FBFBA2FA92F982FF9
:100550008827BC01CD01620F711D811D911D42E0F4
:10056000660F771F881F991F4A95D1F708958F92BC
:100570009F92AF92BF92CF92DF92EF92FF920E9432
:1005800092024B015C0188EEC82E83E0D82EE12C4C
:10059000F12C0E949202681979098A099B09683E28
:1005A000734081059105A8F321E0C21AD108E10842
:1005B000F10888EE880E83E0981EA11CB11CC114BE
:1005C000D104E104F10429F7FF90EF90DF90CF9080
:1005D000BF90AF909F908F9008951F920F920FB68B
:1005E0000F9211242F933F934F935F936F937F93B9
:1005F0008F939F93AF93BF93EF93FF9381E391E02A
:100600000E946401FF91EF91BF91AF919F918F91F3
:100610007F916F915F914F913F912F910F900FBEFE
:100620000F901F9018951F920F920FB60F921124E2
:100630002F938F939F93EF93FF93E0914101F0915C
:1006400042018081E0914701F091480182FD1BC089
:10065000908180914A018F5F8F7320914B018217A7
:1006600041F0E0914A01F0E0EF5CFE4F958F8093FE
:100670004A01FF91EF919F918F912F910F900FBEA3
:100680000F901F9018958081F4CF1F920F920FB694
:100690000F9211242F933F938F939F93AF93BF9308
:1006A00080912D0190912E01A0912F01B0913001E8
:1006B0003091280123E0230F2D3758F50196A11D15
:1006C000B11D2093280180932D0190932E01A093BA
:1006D0002F01B09330018091290190912A01A091BE
:1006E0002B01B0912C010196A11DB11D8093290110
:1006F00090932A01A0932B01B0932C01BF91AF914D
:100700009F918F913F912F910F900FBE0F901F904F
:10071000189526E8230F0296A11DB11DD2CF1F9276
:100720000F920FB60F9211240F900FBE0F901F90D3
:100730001895789484B5826084BD84B5816084BD49
:1007400085B5826085BD85B5816085BD80916E006F
:10075000816080936E0010928100809181008260A0
:1007600080938100809181008160809381008091DD
:1007700080008160809380008091B10084608093CC
:10078000B1008091B00081608093B00080917A00C8
:10079000846080937A0080917A00826080937A00EE
:1007A00080917A00816080937A0080917A008068DD
:1007B00080937A001092C100C3E08C2F0E948700C2
:1007C000CF5FC930D1F78BE00E9487008CE00E9498
:1007D0008700E0914101F091420182E08083E09145
:1007E0003D01F0913E011082E0913F01F091400106
:1007F0008FEC808310924901E0914501F091460110
:1008000086E08083E0914301F09144018081806122
:100810008083E0914301F09144018081886080836E
:10082000E0914301F0914401808180688083E091F0
:100830004301F091440180818F7D8083C0E0D0E04E
:1008400081E391E00E944401892B09F4B6C00E9423
:100850000401FC0197FD61C08D32910521F0C09724
:100860000A9708F053C0C12CD12C760110E0E1307A
:10087000F105D9F0ED32F10509F44DC0CF01C09773
:100880000A9798F4AAE0B0E0A70196010E9431050A
:100890006F01FF0FEE08FF08C60ED71EE81EF91EF7
:1008A00080E3C81AD108E108F10881E391E00E94D1
:1008B000E2000E940401FC01C0970A97C0F2E130F7
:1008C000F105A9F2112341F0F094E094D094C09482
:1008D000C11CD11CE11CF11C82E0C816D10409F432
:1008E00077C0FCF4CA94CD2881F14FE050E062E17A
:1008F00071E081E391E00E94A60042E050E062E2F4
:1009000071E081E391E00E94A60033C081E391E0B1
:100910000E94E2009CCF11E0C8CFC12CD12C7601FF
:10092000DBCF83E0C816D10409F45DC084E0C816AB
:10093000D104D9F661E088E00E94F30164E670E03A
:1009400085E00E943F0260E058C060E084E00E94C1
:10095000F30164E670E083E00E943F0261E08CE016
:100960000E94F30164E670E08BE00E943F020E9467
:10097000B70260E084E00E94F30170E060E083E091
:100980000E943F0261E08CE00E94F30170E060E0B1
:100990008BE00E943F0260E088E00E94F30170E07B
:1009A00060E085E00E943F0261E087E00E94F30181
:1009B00070E060E086E00E943F02209709F440CF9B
:1009C0000E945001882309F43BCF0E94000038CFD9
:1009D00061E084E00E94F30164E670E083E00E943D
:1009E0003F0260E0BCCF60E088E00E94F30164E673
:1009F00070E085E00E943F0261E087E00E94F30121
:100A000064E670E086E0B1CFE1E3F1E013821282A8
:100A100088EE93E0A0E0B0E084839583A683B7835B
:100A200084E091E09183808385EC90E095878487D2
:100A300084EC90E09787868780EC90E0918B808BA8
:100A400081EC90E0938B828B82EC90E0958B848B91
:100A500086EC90E0978B868B118E128E138E148EFF
:100A600008950E943C05A59F900DB49F900DA49FF2
:100A7000800D911D11240895A29FB001B39FC00164
:100A8000A39F700D811D1124911DB29F700D811DBA
:100A90001124911D0895EE0FFF1F0590F491E02D94
:060AA0000994F894FFCF59
:100AA600000000008601A600D300D3014401E20045
:100AB600F600496E76616C696420636F6D6D616ED8
:060AC60064000D0A0000AF
:00000001FF
