:020000040000FA
:100000000C945D000C9485000C9485000C943403D2
:100010000C9434030C9434030C9485000C948500E8
:100020000C9485000C9485000C9485000C9485003C
:100030000C9485000C9485000C9485000C9485002C
:100040000C9492020C9485000C9402030C94DC0234
:100050000C9485000C9485000C9485000C9485000C
:100060000C9485000C94850000000008000201003B
:100070000003040700000000000000000000000072
:10008000250028002B0000000000240027002A0083
:10009000040404040404040402020202020203032E
:1000A0000303030301020408102040800102040836
:1000B0001020010204081020A70411241FBECFEF56
:1000C000D8E0DEBFCDBF21E0A6E2B1E001C01D92C5
:1000D000AE3CB207E1F711E0A0E0B1E0ECEEF9E0F0
:1000E00002C005900D92A632B107D9F710E0CDE518
:1000F000D0E004C02197FE010E94EE04CC35D10768
:10010000C9F70E943E030C94F4040C94000090E0A4
:10011000FC01EC55FF4F249180579F4FFC018491C7
:10012000882399F090E0880F991FFC01EA57FF4F50
:10013000A591B491FC01E458FF4F859194918FB73C
:10014000F894EC91E22BEC938FBF0895AF92BF929D
:10015000CF92DF92EF92FF920F931F93CF93DF9393
:100160006C017B018B01040F151FEB015E01AE18C2
:10017000BF08C017D10759F06991D601ED91FC91E4
:100180000190F081E02DC6010995892B79F7C50111
:10019000DF91CF911F910F91FF90EF90DF90CF9063
:1001A000BF90AF900895FC01538D448D252F30E012
:1001B000842F90E0821B930B541710F0CF96089574
:1001C00001970895FC01918D828D981761F0A28DA1
:1001D000AE0FBF2FB11D5D968C91928D9F5F9F7367
:1001E000928F90E008958FEF9FEF0895FC01918D1D
:1001F000828D981731F0828DE80FF11D858D90E08A
:1002000008958FEF9FEF08952FB7F89480912D01F7
:1002100090912E01A0912F01B09130012FBF8093BA
:10022000390190933A01A0933B01B0933C0181E3E3
:1002300091E00E94F60097FF26C02FB7F8948091B6
:100240002D0190912E01A0912F01B09130012FBF6F
:100250004091390150913A0160913B0170913C010C
:10026000841B950BA60BB70B4091350150913601BD
:10027000609137017091380184179507A607B70779
:10028000B0F28FEF9FEF0895FC01918D228D892FA1
:1002900090E0805C9F4F821B91098F73992708958E
:1002A00081E391E00E94440121E0892B09F420E0E0
:1002B000822F089580E090E0892B29F00E94500160
:1002C00081110C9400000895FC01A48DA80FB92F92
:1002D000B11DA35ABF4F2C91848D90E001968F736E
:1002E0009927848FA689B7892C93A089B1898C918D
:1002F000837080648C93938D848D981306C00288DC
:10030000F389E02D80818F7D80830895EF92FF92A5
:100310000F931F93CF93DF93EC0181E0888F9B8D28
:100320008C8D98131AC0E889F989808185FF15C0E2
:100330009FB7F894EE89FF896083E889F989808105
:100340008370806480839FBF81E090E0DF91CF91D4
:100350001F910F91FF90EF900895F62E0B8D10E0F6
:100360000F5F1F4F0F731127E02E8C8D8E110CC065
:100370000FB607FCFACFE889F989808185FFF5CFB0
:10038000CE010E946401F1CFEB8DEC0FFD2FF11D2A
:10039000E35AFF4FF0829FB7F8940B8FEA89FB89ED
:1003A00080818062CFCFCF93DF93EC01888D88234B
:1003B000B9F0AA89BB89E889F9898C9185FD03C0C8
:1003C000808186FD0DC00FB607FCF7CF8C9185FFAD
:1003D000F2CF808185FFEDCFCE010E946401E9CF8D
:1003E000DF91CF91089590E0FC01E859FF4F2491EF
:1003F000FC01EC55FF4F3491FC01E057FF4FE491B5
:10040000EE23C9F0222339F0233001F1A8F4213082
:1004100019F1223029F1F0E0EE0FFF1FE458FF4FF1
:10042000A591B4918FB7F894EC91611126C03095E5
:100430003E233C938FBF08952730A9F02830C9F0A0
:10044000243049F7809180008F7D03C08091800027
:100450008F7780938000DFCF84B58F7784BDDBCF2B
:1004600084B58F7DFBCF8091B0008F778093B000F3
:10047000D2CF8091B0008F7DF9CF3E2BDACF1F9382
:10048000CF93DF93182FEB010E948700209739F458
:1004900060E0812FDF91CF911F910C94F301E12F48
:1004A000F0E0E859FF4FE491E33011F148F4E13016
:1004B000B9F0E23069F784B5806284BDC8BD14C06C
:1004C000E73001F1E83031F1E43011F7809180003C
:1004D000806280938000D0938B00C0938A0004C018
:1004E00084B5806884BDC7BDDF91CF911F91089509
:1004F00080918000806880938000D0938900C093B1
:100500008800F2CF8091B00080688093B000C093E3
:10051000B300EACF8091B00080628093B000C093B6
:10052000B400E2CF1F920F920FB60F9211242F93B7
:100530003F938F939F93AF93BF9380912D019091A1
:100540002E01A0912F01B091300130912C0123E0B8
:10055000230F2D3758F50196A11DB11D20932C01B5
:1005600080932D0190932E01A0932F01B093300121
:100570008091280190912901A0912A01B0912B012D
:100580000196A11DB11D8093280190932901A0938C
:100590002A01B0932B01BF91AF919F918F913F9111
:1005A0002F910F900FBE0F901F90189526E8230FE4
:1005B0000296A11DB11DD2CF1F920F920FB60F92BE
:1005C00011242F933F934F935F936F937F938F9358
:1005D0009F93AF93BF93EF93FF9381E391E00E94CA
:1005E0006401FF91EF91BF91AF919F918F917F91A6
:1005F0006F915F914F913F912F910F900FBE0F9090
:100600001F9018951F920F920FB60F9211242F93DF
:100610008F939F93EF93FF93E0914101F0914201FB
:100620008081E0914701F091480182FD1BC09081DB
:1006300080914A018F5F8F7320914B01821741F0A7
:10064000E0914A01F0E0EF5CFE4F958F80934A0104
:10065000FF91EF919F918F912F910F900FBE0F906F
:100660001F9018958081F4CF1F920F920FB60F92B2
:1006700011240F900FBE0F901F901895789484B599
:10068000826084BD84B5816084BD85B5826085BD8E
:1006900085B5816085BD80916E00816080936E001C
:1006A000109281008091810082608093810080910E
:1006B00081008160809381008091800081608093BF
:1006C00080008091B10084608093B1008091B0007F
:1006D00081608093B00080917A00846080937A007A
:1006E00080917A00826080937A0080917A008160A4
:1006F00080937A0080917A00806880937A001092CB
:10070000C100C3E08C2F0E948700CF5FC930D1F7B2
:100710008BE00E9487008CE00E948700E0914101FD
:10072000F091420182E08083E0913D01F0913E0131
:100730001082E0913F01F09140018FEC8083109294
:100740004901E0914501F091460186E08083E09106
:100750004301F0914401808180618083E0914301F5
:10076000F0914401808188608083E0914301F091A1
:100770004401808180688083E0914301F0914401CD
:1007800080818F7D8083C0E0D0E081E391E00E9492
:100790004401892B09F4C5C00E940401FC0197FDA6
:1007A00061C08D32910521F0C0970A9708F053C0BF
:1007B000C12CD12C760110E0E130F105D9F0ED32F9
:1007C000F10509F44DC0CF01C0970A9798F4AAE04B
:1007D000B0E0A70196010E94D4046F01FF0FEE085C
:1007E000FF08C60ED71EE81EF91E80E3C81AD108FE
:1007F000E108F10881E391E00E94E2000E94040117
:10080000FC01C0970A97C0F2E130F105A9F211236B
:1008100041F0F094E094D094C094C11CD11CE11C30
:10082000F11C82E0C816D10409F445C0FCF4CA9456
:10083000CD2881F14FE050E062E171E081E391E089
:100840000E94A60042E050E062E271E081E391E0A4
:100850000E94A60042C081E391E00E94E2009CCF8A
:1008600011E0C8CFC12CD12C7601DBCF83E0C816B4
:10087000D10409F461C084E0C816D104D9F661E05E
:1008800088E00E94F30164E670E085E00E943F0288
:1008900060E01BC060E084E00E94F30164E670E069
:1008A00083E00E943F0261E08CE00E94F30164E675
:1008B00070E08BE010C060E088E00E94F30164E625
:1008C00070E085E00E943F0261E087E00E94F30152
:1008D00064E670E086E00E943F0260E084E00E94EF
:1008E000F30170E060E083E00E943F0261E08CE091
:1008F0000E94F30170E060E08BE00E943F0260E044
:1009000088E00E94F30170E060E085E00E943F0211
:1009100061E087E00E94F30170E060E086E00E9401
:100920003F02209709F431CF0E945001882309F437
:100930002CCF0E94000029CF61E084E00E94F301E7
:1009400064E670E083E00E943F0260E0ADCFE1E347
:10095000F1E01382128288EE93E0A0E0B0E084839D
:100960009583A683B78384E091E09183808385ECAF
:1009700090E09587848784EC90E09787868780EC69
:1009800090E0918B808B81EC90E0938B828B82EC5A
:1009900090E0958B848B86EC90E0978B868B118E04
:1009A000128E138E148E08950E94DF04A59F900D61
:1009B000B49F900DA49F800D911D11240895A29FB6
:1009C000B001B39FC001A39F700D811D1124911D23
:1009D000B29F700D811D1124911D0895EE0FFF1F10
:1009E0000590F491E02D0994F894FFCF00000000E9
:1009F0008601A600D300D3014401E200F600496E4F
:100A000076616C696420636F6D6D616E64000D0AC0
:020A10000000E4
:107E0000112484B714BE81FFF0D085E080938100F7
:107E100082E08093C00088E18093C10086E0809377
:107E2000C20080E18093C4008EE0C9D0259A86E02C
:107E300020E33CEF91E0309385002093840096BBD3
:107E4000B09BFECF1D9AA8958150A9F7CC24DD24C4
:107E500088248394B5E0AB2EA1E19A2EF3E0BF2EE7
:107E6000A2D0813461F49FD0082FAFD0023811F036
:107E7000013811F484E001C083E08DD089C08234E0
:107E800011F484E103C0853419F485E0A6D080C0E4
:107E9000853579F488D0E82EFF2485D0082F10E0AE
:107EA000102F00270E291F29000F111F8ED06801E7
:107EB0006FC0863521F484E090D080E0DECF843638
:107EC00009F040C070D06FD0082F6DD080E0C81688
:107ED00080E7D80618F4F601B7BEE895C0E0D1E017
:107EE00062D089930C17E1F7F0E0CF16F0E7DF06D8
:107EF00018F0F601B7BEE89568D007B600FCFDCFD4
:107F0000A601A0E0B1E02C9130E011968C91119780
:107F100090E0982F8827822B932B1296FA010C0160
:107F200087BEE89511244E5F5F4FF1E0A038BF0790
:107F300051F7F601A7BEE89507B600FCFDCF97BE46
:107F4000E89526C08437B1F42ED02DD0F82E2BD052
:107F50003CD0F601EF2C8F010F5F1F4F84911BD097
:107F6000EA94F801C1F70894C11CD11CFA94CF0C13
:107F7000D11C0EC0853739F428D08EE10CD085E9AC
:107F80000AD08FE07ACF813511F488E018D01DD067
:107F900080E101D065CF982F8091C00085FFFCCF94
:107FA0009093C60008958091C00087FFFCCF809118
:107FB000C00084FD01C0A8958091C6000895E0E648
:107FC000F0E098E1908380830895EDDF803219F02E
:107FD00088E0F5DFFFCF84E1DECF1F93182FE3DFCA
:107FE0001150E9F7F2DF1F91089580E0E8DFEE27F6
:047FF000FF270994CA
:027FFE00040479
:00000001FF
